:020000040800F2
:10000000C80D002055130008890300088B03000861
:100010008D0300088F030008910300080000000012
:100020000000000000000000000000009303000832
:100030009503000800000000970300086D130008F6
:100040006F1300086F1300086F1300086F13000888
:100050006F1300086F1300086F1300086F13000878
:100060006F1300086F1300086F1300086F13000868
:100070006F1300086F1300086F1300086F13000858
:100080006F1300086F1300086F1300086F13000848
:10009000B70600086F1300086F1300086F130008FD
:1000A0006F1300086F1300086F1300086F13000828
:1000B0006F1300086F1300086F1300086F13000818
:1000C0006F1300086F1300086F1300086F13000808
:1000D0006F1300086F1300086F1300086F130008F8
:1000E0006F1300086F1300086F1300086F130008E8
:1000F0006F1300086F1300086F1300086F130008D8
:100100006F1300086F1300086F1300086F130008C7
:100110006F1300086F1300086F1300086F130008B7
:100120006F1300086F1300086F1300086F130008A7
:100130006F1300086F1300086F1300086F13000897
:10014000190700086F1300086F1300086F130008E9
:100150006F1300086F1300086F1300086F13000877
:100160006F1300086F1300086F1300086F13000867
:100170006F1300086F1300086F1300086F13000857
:100180006F1300086F130008DFF80CD002F06CFC4E
:10019000004800479D010008C80D002008B5002058
:1001A00080F31088A82000F0F7F800F0B1F820489C
:1001B00002F0BAFC1FA002F0B7FC00F091FF244C43
:1001C00058B924492068884207D123A002F0ACFC2A
:1001D0000A2000F022F901F041F823A002F0A4FC6B
:1001E000002000F00BFF2449002000F0CAF923A0F2
:1001F00002F09AFC26A0216802F096FC2BA021694F
:1002000002F092FC01226946002000F040FF002825
:10021000F8D0009801794A0704D50146002000F083
:1002200005FAEFE7C1F3C301401D00F05AFDE9E70D
:10023000DC2F000853746172742043414E205544F2
:100240005320426F6F746C6F616465720D0A000019
:1002500000400008AA55AA55457865204170702EC7
:100260002E2E0D0A0000000045786520426F6F7445
:100270002E2E2E0D0A00000020A1070043414E3112
:1002800020436F6E66696720456E640D0A000000AA
:100290004150505F56414C49445F464C4147203DD8
:1002A000203078253038580D0A000000424F4F5456
:1002B0005F5245515F464C4147203D203078253004
:1002C00038580D0A0000000010B50121042001F08B
:1002D000D9FA0121080501F0F3FA0822BDE810401F
:1002E0000C21274801F089B91CB54FF480500090CB
:1002F00002208DF804008DF8050000208DF806001E
:1003000001208DF8070069461D4801F0EDF81CBD7D
:100310001FB5FFF7D9FFFFF7E7FF4FF47A300090E2
:100320000020ADF80600ADF80400ADF80800ADF807
:100330000C000820134CADF80A006946204601F075
:10034000A0FB002240F22551204601F0AAFC012129
:10035000204601F007FC4021204601F0C1FC1FBDF2
:1003600070B5084D0446C1B2284601F021FC802139
:10037000284601F0AEFC0028F9D0204670BD0000F0
:1003800000080240005000407047FEE7FEE7FEE72D
:10039000FEE770477047704710B504466FF00400E1
:1003A00001F030F82948E10801EB41020170C2EB8D
:1003B000C1114FF6FF7202EAC101418010BD23490D
:1003C000097848434FF0E021486100228A610869BA
:1003D00040F0010008610869C30701D0C003FAD5E5
:1003E000086920F0010008618A617047174949884F
:1003F00048434FF0E021486100228A61086940F0DB
:10040000010008610869C30701D0C003FAD5086973
:1004100020F0010008618A61704770B54FF40775DC
:10042000B0FBF5F1CCB2B0FBF5F105FB110604E031
:100430002846FFF7DBFF641EE4B2002CF8D1002E43
:1004400003D03046BDE87040D0E770BD000000200A
:1004500010B50022C84B0BE0844208D102EB4200E9
:1004600003EB80000DC881E80D00012010BD521C77
:1004700002EB420453F82440002CEDD1002010BDC3
:100480002DE9FC4100240126BC4D0227D0B10922F0
:100490000C21284601F0B1F809220D21284601F06F
:1004A000ACF84FF440508DF804708DF80640009081
:1004B0008DF807608DF805406946284601F014F86C
:1004C000BDE8FC810121022001F0DCF90121480690
:1004D00001F0F6F909220821284601F08EF80922D8
:1004E0001146284601F089F84FF44070DBE738B533
:1004F00004464FF4E06000F03FFF7CB15FF0400045
:100500008DF8000000208DF801008DF80200012018
:100510008DF80300684600F034FF38BD1420EFE783
:100520007FB5C0EBC00001EB400001218DF80A004F
:100530008DF80B108DF80C100020CBB1C2F34434B1
:10054000950C44EA4514D20003F00103ADF80040D5
:1005500042EA8302ADF80220ADF80400ADF80600CF
:10056000ADF808008DF80D10684601F074FC7FBDF1
:100570004FF6FF7303EA4212ADF80020ADF8020017
:10058000EAE770B50D467E498AB00446D1E900011C
:10059000CDE903012046FFF7AAFF2046FFF770FFD1
:1005A000684601F0B9FC00208DF808008DF80900BC
:1005B0008DF80A008DF8060001218DF807008DF8EE
:1005C0000B108DF8020005A92846FFF741FF78B10E
:1005D0009DF818008DF803009DF819008DF80400AF
:1005E0009DF81A008DF80500BDF81C00ADF800005C
:1005F00004F0010503AE694656F8250001F0B7FB8B
:1006000000234FF4E06219462046FFF789FF0023DC
:1006100040F2DF7201212046FFF782FF56F82500E5
:100620000122022101F046FE0AB070BDF0B5544A25
:10063000054687B0D2E90202CDE905020879002417
:10064000C207204605D004228DF808200A680192CE
:1006500003E08DF808000A6800920A79920700D535
:1006600002208DF809000879C0F3C302082A00D9D6
:1006700008228DF80A200DF10B00491D02F09EF9A9
:1006800005F0010705AD694655F8270001F09EFC0D
:10069000064608E0641C642C02D9002007B0F0BDB7
:1006A0000120FFF7BAFE55F82700314601F0E0FCC3
:1006B0000128EFD1F2E710B5324C86B06A4600212E
:1006C000204601F013FD0221204601F07CFE0020AF
:1006D00000F0A4FC9DF8081000291BD10099B1F589
:1006E000E06F03D0A1F5E062DF3A13D1017921F088
:1006F000070101719DF80A2062F3C6010171DDF85E
:100700000B10C0F80510DDF80F10C0F8091000201C
:1007100000F08FFC06B010BD10B51B4C86B06A46C9
:100720000021204601F0E2FC0221204601F04BFEB0
:10073000012000F073FC9DF808100029EAD100990F
:10074000B1F5E06F03D0A1F5E062DF3AE2D10179C3
:1007500021F0070101719DF80A2062F3C6010171C1
:10076000DDF80B10C0F80510DDF80F10C0F8091007
:10077000012000F05EFCCDE70400002000040240F0
:10078000CC2F0008006400400068004038B50446E3
:1007900001226946002000F07AFC30B100990A7904
:1007A000500704D50020FFF741FF002038BDC2F3F9
:1007B000C3022046491D02F001F900980079C0F3F8
:1007C000C30038BD30B591B00D4604466846FFF70A
:1007D000DDFF03281BDB9DF80000227860F3071281
:1007E000000960F3030222709DF8010060709DF81B
:1007F0000200A07002F00F00032808D1B0EB121F16
:1008000005D910090CD00220B0EB121F05D0012031
:10081000FFF703FE6D1E002DD8DC002011B030BDA7
:100820000120FBE770B506460D46002000F0F6FB00
:1008300004460079AA2220F0030140F201702060F2
:1008400021F0780040F00400403020710821601D44
:1008500002F0C6F8082D00D908252A463146601D49
:1008600002F0ACF82146BDE870400020FFF7DEBE84
:100870002DE9F04F1546521C91B00C4606264FF05C
:100880000709D3B26946072A14D88DF800308DF8CD
:1008900001000220002204E014F8013B0B54401C2C
:1008A000521CAA42F8D3C1B26846FFF7BBFF00282A
:1008B0006ED06CE0C2F3032242F010028DF80020EB
:1008C0008DF801308DF8020003200022B6F10103FB
:1008D00014F8017B0F54401C521C88469A42F7DBE7
:1008E000C1B24046FFF79EFF002851D0AE1B4FF427
:1008F0007A7110A8761CFFF765FF002848D0002504
:10090000AB464FF0010A40E005EB0900B04206D9C2
:10091000B6FBF9F109FB1167002F36DD00E04F4609
:100920000AF00F0040F020008DF800000120424640
:10093000002104E014F8013B1354401C491CB94247
:10094000F8DBC1B26846FFF76DFF002820D00AF13E
:10095000010000F0FF0A9DF842000BF1010B411E5F
:100960003D447E2901D8FFF758FD9DF8410060B154
:10097000B5420AD2584508D14FF47A7110A8FFF752
:1009800021FF002804D04FF0000BB542BCD301205A
:1009900011B0BDE8F08F2DE9F84F0646732001270E
:1009A000DFF80C840C4615464FF000094FF0FF3B72
:1009B00046F0400A312E46D008DC102E10D0112E01
:1009C0002FD0272E7DD0282E11D155E11321342E82
:1009D00078D0362E77D0372E76D0852EF4D148E1D8
:1009E000002A04D02078032802D0022807D054E13E
:1009F000F0A002F099F895E021465046DEE0C8F8F4
:100A00000CB088F80070F3A002F08EF801222146A5
:100A10005046FFF72DFF00F0B6FBF3A002F084F87C
:100A20000EE0002AE3D020780128E0D1EEA002F009
:100A30007BF8012221465046FFF71AFF00F0BDFB6C
:100A400000F0EAFB29E1032D09D32178012906D121
:100A50006178FF2903D1A17839B1012917D0072D79
:100A600044D32178012916D04FE0E2A002F05CF8CF
:100A7000E6A00222006800908DF8006069467F20A1
:100A8000FFF7F6FE00F017FCE0700422B4E700F078
:100A900013FCE0703EE06178022943D1A17802297D
:100AA0002CD1D4F8030000BA20F0FF05A07905434B
:100AB000D8F80C00A84208D184F8039000F098FB05
:100AC00004E0E2E030E07CE006E1E7700422214649
:100AD0005046FFF7CDFE2946CDA0D8F80C2002F0F5
:100AE00023F8C8F80CB088F80070D6E0032D08D3BE
:100AF0002178012905D16178022902D1A178032941
:100B000006D012B1217801290CD02670607052E015
:100B100084F80390042221465046FFF7A9FEE178AD
:100B2000C9A09FE0012267E74FF0040B0A2D04D310
:100B3000207810B96078442804D0062A01D32078A0
:100B400008B393E088F80170D4F8020000BA20F0EE
:100B5000FF0160790143C8F80410D4F8060000BA18
:100B600020F0FF02607A0243C1A0C8F8082001F01B
:100B7000DBFF4020207084F8019084F8029084F814
:100B800003B0022093E0607822286FD188F80170CA
:100B9000608841BAC8F80410A08842BAB4A0C8F866
:100BA000082001F0C1FF20202070022084F801B04D
:100BB000A070032220E7022221467F20FFF758FE83
:100BC0006BE0022D52D3217898F8012091423FD159
:100BD0008EA00222006800908DF8006069467F2098
:100BE000FFF746FE98F801006D1E8602D8F8040053
:100BF000ADB2A6F58066611C30442A4600F08CFB3D
:100C0000012221465046FFF733FE98F800002A469D
:100C10000028D8F8040000EB0601D8F80C0006D034
:100C200000F092F9C8F80C0088F8009004E0C04386
:100C300000F08AF9C8F80C00D8F8040081199CA0CB
:100C400001F072FF98F80100401C88F8010024E0D0
:100C500026706070022221467F20FFF709FE98F877
:100C600001109BA001F060FF17E0FFE726706170A4
:100C7000A1E795B19CA004E07DB1207803280CD1B8
:100C80009EA001F051FF2A46B6E6A2A001F04CFF5B
:100C90002078012804D002280CD00120BDE8F88F6C
:100CA000112060702220A0703320E0704420207159
:100CB0000522A1E66078EE2808D1A078DD2805D1CC
:100CC000E078CC2802D12079BB2802D067700222BC
:100CD00092E684F80190FAE793A001F025FF002244
:100CE0008AE62DE9FC4106250726022947D310F89C
:100CF000017B93492E4B3C094FF000020ED0012C92
:100D00001DD0022C3BD19D7807F00F0205F00F0497
:100D1000A24234D1D3E9044200273BE007F00F049C
:100D2000C3E90442072C2ADC002504E010F8016B1B
:100D30008E54521C6D1CA542F8DB5A6131E05A6199
:100D400010F8014B07F00F0644EA06241C61002648
:100D50004FEA020410F8017B0F55641C761CAE426A
:100D6000F8DB01205C61987030208DF800008DF870
:100D700001208DF8022003216846FFF753FDBDE8EE
:100D8000FC8100BF10F801CB01F802C0521C7F1C8F
:100D9000B74201DAA242F5DB6D1C5A619D70A24296
:100DA000EDDB11F8010B521EFFF7F5FDE7E7000040
:100DB00058000020457874656E646564204469615C
:100DC000676E6F737469632053657373696F6E0D1B
:100DD0000A00000050726F6772616D6D696E672066
:100DE0004D6F64650D0A00004543552052657365DB
:100DF000740D0A00457261736520466C617368204A
:100E00004D656D6F72792E2E2E0D0A000078000050
:100E1000436865636B2050726F6772616D6D696EB8
:100E20006720496E746567726974792047657443F9
:100E300052433D25303858204170704352433D2580
:100E40003038580D0A000000436865636B2050720B
:100E50006F6772616D6D696E6720446570656E6461
:100E6000656E63696573207265733D25640D0A00C4
:100E70005265717565737420446F776E6C6F616431
:100E8000204D656D6F727941646472657373203DA6
:100E900020307825303858204D656D6F7279536950
:100EA0007A65203D20256420427974650D0A000092
:100EB0005772697465204461746120546F20466CD8
:100EC00061736820416464723D253038580D0A0012
:100ED0005472616E7366657220446174612042537E
:100EE000433D25640D0A0000436F6E74726F6C44BD
:100EF000544353657474696E670D0A00436F6D6DDA
:100F0000756E69636174696F6E436F6E74726F6C36
:100F10000D0A0000536563757269747941636365F6
:100F200073730D0A000000005265717565737420BB
:100F30005472616E7366657220457869740D0A009B
:100F4000980400202C48704710B52B4BF1BB0020B3
:100F500010BD00BF11F8014B4440E4B253F82440E7
:100F600084EA102011F8014B4440E4B253F82440C5
:100F700084EA102011F8024B4440E4B253F82440B4
:100F800084EA102011F8014C4440E4B253F82440A4
:100F900084EA102011F8044B4440E4B253F8244092
:100FA00084EA102011F8034C4440E4B253F8244082
:100FB00084EA102011F8024C4440E4B253F8244073
:100FC00084EA102011F8014C444000E005E0E4B24E
:100FD000083A53F8244084EA1020082ABAD24AB1C9
:100FE00011F8014B4440E4B2521E53F8244084EA05
:100FF0001020F4E7C04310BD70000020374B00EB19
:10100000800203EB82001021C160A3F580710161B1
:101010000021416043F822108160704700EB80019D
:101020002E4800EB810250F82100126902EB0010FB
:10103000704710B5012181F31088284900EB800327
:1010400001EB830051F82340C268641C521E144017
:1010500041F8234041688C4203D1491C1140416052
:1010600002E08168491C8160002080F3108810BD77
:10107000F0B50C4615460746059EFFF7CFFFC66044
:101080000460C0E901533846BDE8F040D1E730B50F
:10109000012383F3108800EB8003104850F823509D
:1010A00000EB83035C68A54201DB986801E0D86827
:1010B000001B1D69904205EB04140C6000DB104618
:1010C0009968091A99605968DA680144521E1140FA
:1010D0005960002181F3108830BD0000A009002074
:1010E0008E488F490069884201D101207047002055
:1010F00070470021A0F100634FF48042934240D337
:10110000864949420144914201D2082139E085498A
:101110000144914201D2102133E0834901449142BC
:1011200001D218212DE081490144B1F5803F01D25F
:10113000202126E07E4942184FF400318A4201D234
:1011400028211EE07B4A02448A4201D2302118E065
:10115000794A02448A4201D2382112E0774A024495
:101160008A4201D240210CE0754A02448A4201D2EF
:10117000482106E0734A1044884201D2502100E021
:1011800058210846704710B5012080F3108801F0FF
:101190008FF9F32001F017FB6048FFF7AAFF022147
:1011A00001F0C1F95D485E49103001F03CFA01F0F0
:1011B0008BF9002080F3108810BD70B5574D0120C9
:1011C00080F310882C6801F073F9F32001F0FBFA2A
:1011D0002846FFF78EFF022101F0A5F92146284697
:1011E00001F021FA01F070F9002080F3108870BD41
:1011F00010B5012080F3108801F05AF9F32001F0B6
:10120000E2FA47494548C94301F00DFA01F05CF99B
:10121000002080F3108810BD012080F31388BFF3F5
:101220004F8F49480168494A01F4E0611143016068
:10123000BFF34F8FFEE782B0012181F31088016870
:10124000434A1140B1F1005F06D141680091006846
:1012500080F3088802B0084702B070473148404226
:10126000E9E770B5012080F3108801F021F92D48DD
:101270004042FFF73EFF04462E484042FFF739FF49
:101280000546F32001F09FFA0DE00221204601F00F
:101290004AF9082806D001F017F9002080F31088D9
:1012A000012070BD0834AC42EFD901F00DF90020E7
:1012B00080F3108870BDD4E7012070472DE9F0411C
:1012C000064617460C46012080F3108801F0F0F81E
:1012D0001248864202D20220BDE8F081F32001F0DC
:1012E00072FA00250FE02188304601F0B9F908288C
:1012F00006D001F0E9F8002080F310880120EBE728
:10130000A41C6D1CB61CB5EB570FECD301F0DCF838
:10131000002080F31088DFE7D0E7000000400008DD
:1013200055AA55AA0080FFF70040FFF70000FFF71D
:101330000000FEF70000FCF70000FAF70000F8F7E5
:101340000000F6F70000F4F70CED00E00400FA05E9
:101350000000FE2F0648804706480047FEE7FEE7EC
:10136000FEE7FEE7FEE7FEE7FEE7FEE7FEE7FEE755
:10137000D92800088901000828490843284908603D
:10138000704730B50F22C47801780123FCB1244C9A
:10139000246801F1E02104F4E064C4F5E064C4F3DE
:1013A0000724C4F10405E2404478AC408578154038
:1013B00025432A0181F80024007800F01F018B40AA
:1013C0004009800000F1E020C0F8003130BD01F09C
:1013D0001F0083404809800000F1E020C0F8803100
:1013E00030BD104A114001430D48001F0160704795
:1013F0000B4A121D0029116801D0014300E081430E
:10140000116070474FF0E0210428086903D020F0F4
:1014100004000861704740F00400FAE70000FA0594
:101420000CED00E080FFFF1F7C4910B5884206D11B
:101430000121084600F058FA002101204FE07849C8
:10144000884206D10121022000F04EFA002102203C
:1014500045E07449884206D10121042000F044FA95
:10146000002104203BE07049884206D10121082078
:1014700000F03AFA0021082031E06C49884206D198
:101480000121102000F030FA0021102027E06849E7
:10149000884206D10121202000F026FA00212020D8
:1014A0001DE06449884206D10121402000F01CFA69
:1014B0000021402013E06049884206D101218020AC
:1014C00000F012FA0021802009E05C4988420AD12C
:1014D00084150121204600F007FA00212046BDE8CE
:1014E000104000F001BA10BDF0B50023012403271D
:1014F0000D6804FA03F21540954242D1D0F800C0BD
:101500005E0007FA06F52CEA050CC0F800C091F859
:1015100004C0D0F800E00CFA06FC4CEA0E0CC0F84F
:1015200000C091F804C0BCF1010F02D0BCF1020F61
:101530001FD1D0F808C02CEA050CC0F808C091F8FB
:1015400005C0D0F808E00CFA06FC4CEA0E0CC0F816
:1015500008C0D0F804C02CEA020CC0F804C04268ED
:1015600091F806C00CFA03FC1FFA8CFC42EA0C024C
:101570004260C268AA43C260CA79C568B2402A43C1
:10158000C2605B1C102BB3D3F0BD4FF6FF7101603E
:101590000021017141718171C171704708B541F439
:1015A00080320092C261C1610099C161C169C069A4
:1015B000009008BD0246002012690A4200D00120B6
:1015C0007047006980B270470246002052690A42A3
:1015D00000D001207047406980B270470183704796
:1015E000418370470AB1018370474183704741616D
:1015F000704742694A40426170474B07DB0E9A4090
:10160000C90810B500EB8100016A0F249C40A1437A
:101610000162016A1143016210BD00000000024036
:101620000004024000080240000C0240001002408A
:101630000014024000180240001C0240002002403A
:10164000EA48016841F001010160E84A00210832DE
:1016500011600268E64B1A400260031DE54A1A60F9
:10166000026822F480220260E0480C30016070477A
:10167000DE490022891C0A7008707047024600206B
:10168000510901290CD002290CD0D84974310968BC
:1016900002F01F02012393400B4200D0012070474B
:1016A000D249F4E7D1497031F1E718B500204FF481
:1016B000A06400903120FFF7E1FF0099491C0091E0
:1016C000A14201D00028F5D03120FFF7D7FF002834
:1016D00000D0012018BDC5490A6822F0F80242EA8C
:1016E000C00008607047C44908607047BF490022C5
:1016F00070310A700A70012802D0042801D1052037
:1017000008707047BD490860704741EA82115A0865
:1017100010B5BB4B029C03EB02421143014341EA6B
:101720000460B249091D086010BDB34908667047DE
:10173000800140EA0170AD49843108607047AE49CC
:1017400088667047AC49C8647047A84A0832136875
:10175000084323F0EC63184310607047A34A083233
:101760001368084323F078431843106070479F4A7A
:101770000832116821F003010143116070479B4852
:101780000830006800F00C007047984A0832116871
:1017900021F0F001014311607047944A083211684A
:1017A00021F4E051014311607047904908310A6803
:1017B00022F4604242EAC0000860704770B58B4A6C
:1017C000083211688F4C11F00C0104D06610042906
:1017D00003D0082903D004601BE0066019E08349A8
:1017E000091D0B68C3F380550B6803F03F0315B167
:1017F000B6FBF3F301E0B4FBF3F30C680968C4F340
:1018000088146343C1F30141491C4900B3FBF1F162
:10181000016011680F2303EA11117B4B5C5C0168C6
:10182000E14041601468072505EA94241C5D21FA13
:1018300004F48460126805EA52329A5CD140C160B7
:1018400070BDC0F30121032908D1684A083211682C
:1018500021F4F8136D490140194311606349703157
:101860000A68C0F30B0002430A60704763494439B9
:101870000860704761494039086070475E49C1F8A7
:101880005C017047594A30320029116801D0014388
:1018900000E0814311607047544A343200291168D6
:1018A00001D0014300E08143116070474F4A383254
:1018B0000029116801D0014300E0814311607047A5
:1018C0004A4A40320029116801D0014300E08143B7
:1018D00011607047454A44320029116801D0014324
:1018E00000E0814311607047404A103200291168BE
:1018F00001D0014300E08143116070473B4A14323C
:101900000029116801D0014300E081431160704754
:10191000364A18320029116801D0014300E08143A2
:1019200011607047314A20320029116801D001430B
:1019300000E08143116070472C4A2432002911686D
:1019400001D0014300E0814311607047274A5032C3
:101950000029116801D0014300E081431160704704
:10196000224A54320029116801D0014300E081432A
:10197000116070471D4A58320029116801D0014397
:1019800000E0814311607047184A603200291168F5
:1019900001D0014300E0814311607047134A643273
:1019A0000029116801D0014300E0814311607047B4
:1019B0000E4A0D320029117801D0014300E0814325
:1019C0001170704709487430016841F080710160FE
:1019D00070470146054A00200C3212680A4200D0C6
:1019E0000120704701490E310870704700380240ED
:1019F000FFFFF6FE1030002400004742800E4742F1
:101A00000000FFFF0024F40070040020FFFCFF0F23
:101A1000C74910B5884206D101211020FFF78CFF7D
:101A20000021102028E0C349884202D101214C0442
:101A300010E0C149884202D101218C040AE0BF496B
:101A4000884202D10121CC0404E0BD4988420AD178
:101A500001210C052046FFF765FF2046BDE8104038
:101A60000021FFF75FBFB749884209D1012120203B
:101A7000FFF762FF00212020BDE81040FFF75CBFA8
:101A800010BD7FB50446008A0D4620F44051E88819
:101A900008432082A08941F20C618843A9882A89E1
:101AA00011436A8902431143A181A08A20F4407145
:101AB000A8890843A0826846FFF780FE9C488442BC
:101AC00002D0A048844201D1039800E00298A18985
:101AD000090400EBC00101EB0010296801D54900A1
:101AE00000E08900B0FBF1F26420B2FBF0F10901E3
:101AF0000B096FF018056B4302EB8302A3891D04E9
:101B00004FF0320306D503EBC202B2FBF0F000F057
:101B1000070005E003EB0212B2FBF0F000F00F004B
:101B2000084320817FBD4FF4165101600021818060
:101B3000C18001810C2242818181704710B5028AE7
:101B40004C8822F470630A8822438C88C9880C432D
:101B500022431A43028210BD00210180418081800E
:101B6000C18070470029818902D041F4005101E011
:101B700021F4005181817047028B02F47F4202837D
:101B8000028B0A43028370470029818902D041F405
:101B9000004101E0C1F30E01818170470029818A73
:101BA00002D041F4006101E021F4006181827047BC
:101BB000C1F30801818070478088C0F30800704736
:101BC000028A22F00F020282028A0A4302827047CE
:101BD0000029818902D041F0020101E021F00201D7
:101BE00081817047828922F40062828182890A435E
:101BF00082817047028A22F020020282028A0A430E
:101C0000028270470029018A02D041F4804101E03C
:101C100021F4804101827047818941F00101818175
:101C200070470029818A02D041F0080101E021F0CB
:101C3000080181827047028BD2B20283028B42EA92
:101C40000121018370470029818A02D041F02001DF
:101C500001E021F02001818270470029818A02D0B1
:101C600041F0100101E021F0100181827047828A69
:101C700022F004028282828A0A438282704700290B
:101C8000818A02D041F0020101E021F0020181824B
:101C90007047002A828A01D00A4300E08A43828288
:101CA000704710B5C1F3421301F01F040121A14098
:101CB000012B07D0022B07D01430002A026805D070
:101CC0000A4304E00C30F8E71030F6E78A4302607C
:101CD00010BD0246002012880A4200D00120704741
:101CE000C9430180704730B501F01F02012400256F
:101CF000C1F3421304FA02F2012B0FD0022B0FD0D2
:101D0000838A4FEA11210088134204FA01F400EAA1
:101D1000040001D000B10125284630BD8389F0E7D9
:101D2000038AEEE70A0A01219140C9430180704706
:101D3000001001400044004000480040004C0040BA
:101D40000050004000140140FE4910B588424FF099
:101D5000010101D14C0601E04FF080642046FFF7FD
:101D6000E1FD2046BDE810400021FFF7DBBD10B5C6
:101D70000368002223F002030360036843F00103B9
:101D800003604FF6FF7300E0521C4468E40701D182
:101D90009A42F9D14268D2073ED08A79012A026874
:101DA0003CD022F080020260CA79012A026838D051
:101DB00022F0400202600A7A012A026834D022F03E
:101DC000200202604A7A012A026830D022F0100212
:101DD00002608A7A012A02682CD022F0080202608E
:101DE000CA7A012A026828D022F0040202608A78A6
:101DF000CC78920742EA04620C7942EA04424C79B8
:101E0000098842EA0452491E0A43C261016821F06E
:101E100001010160002114E0002010BD42F08002A9
:101E2000C1E742F04002C5E742F02002C9E742F0B4
:101E30001002CDE742F00802D1E742F00402D5E7F4
:101E4000491C4268D20701D09942F9D14068C007C5
:101E5000E2D1012010BDF0B5827A01219140BA4A49
:101E6000136843F001031360B74B1C331C688C43A9
:101E70001C60B54D067BB54C0C35A6B92E688E435B
:101E80002E604688C78846EA0746877A04EBC7076C
:101E9000C7F840660688878846EA0746877A04EBD3
:101EA000C707C7F84466067B012E12D12E680E4381
:101EB0002E60867A056804EBC6064FEA3545C6F8FB
:101EC0004056867A456804EBC6044FEA3545C4F8A7
:101ED00044569D4CC57A241D002D256806D00D431F
:101EE0002560994C0589143415B104E08D43F7E75A
:101EF00025688D4325600589012D02D125680D4394
:101F00002560407B012802D11868084318601068DA
:101F100020F001001060F0BD00218171C1710172DB
:101F200041728172C1728170C170032101710221FD
:101F3000417101210180704783490A6842F0010222
:101F40000A600A6843F60E739A430A600A6842EA16
:101F500000200860086820F0010008607047002930
:101F6000016802D041F4803101E021F48031016048
:101F700070470029016813D041F080010160D0F85A
:101F8000841141F48071C0F88411D0F8941141F4A7
:101F90008071C0F89411D0F8A41141F4807112E05E
:101FA00021F080010160D0F8841121F48071C0F823
:101FB0008411D0F8941121F48071C0F89411D0F8F4
:101FC000A41121F48071C0F8A411704730B5024605
:101FD000002093685B0108D49068000101D50120BE
:101FE00003E09068C00037D5022002EB0012D2F85F
:101FF000803103F00103C2F880310B7A73B3D2F859
:1020000080414D681C434B7A43EAC5031C43C2F828
:1020100080418B7A03F00F038B72D2F8843123F066
:102020000F03C2F88431D2F884318C7A2343C2F88A
:102030008431CB7ACC6843EA0423C2F88831CB7B65
:10204000096943EA0121C2F88C11D2F8801141F0EC
:102050000101C2F8801130BD042030BDD2F88031BA
:102060004C7A23430C8843EA4453C2F88031D0E7CA
:10207000002221B1012905D0022906D112E082688F
:10208000334801E08268334802403349501A8A429B
:1020900014D00ADCA2B16FF0806010180FD00228B3
:1020A0000CD10FE082682D48EEE7B0F5007F09D033
:1020B0002B49401803D0B0F5003F03D000207047F3
:1020C000022070470120704741B101290AD002293E
:1020D00003D1816841F4000181607047816841F05B
:1020E0008001F9E7816841F40041F5E710B500EBA4
:1020F0000113D3F8B04114F004041472D3F8B041C2
:1021000045D0E408C2F80440D3F8B04104F002041A
:102110005472D3F8B44104F00F049472D3F8B4416C
:10212000240AD474D3F8B841D472D3F8B841240A3D
:102130001473D3F8B841240C5473D3F8B841240E67
:1021400094730FE0006400400066004000600040AF
:102150000300000400030008000100080000031051
:102160000001FFF7D3F8BC41D473D3F8BC41240A73
:102170001474D3F8BC41240C5474D3F8BC311B0E36
:10218000937439B1016941F02001016110BD640D02
:102190001460B9E7C16841F02001C16010BD21B1F0
:1021A000016941F0200101617047C16841F02001DF
:1021B000C16070470246002029B1012902D110698F
:1021C00000F003007047D068FAE700234FF6FF7273
:1021D00021B1012917D0022924D03AE0016821F069
:1021E000020141F00101016000E0521E416801F06E
:1021F0000301012901D0002AF7D1406800F0030053
:10220000012823D124E0016821F00301016000E0EE
:10221000521E4168890701D0002AF9D14068800721
:1022200014D115E0016821F0010141F002010160C3
:1022300000E0521E416801F00301022901D0002A8A
:10224000F7D1406800F00300022801D0002300E02D
:102250000123184670470268002122F0010242F073
:1022600002020260406800F00300022800D1012150
:102270000846704703684FF6FF71002223F00203FF
:10228000036000E0491E43689B0701D50029F9D18E
:102290004068800700D40122104670478069C0F36F
:1022A0000210000170478069000E70478069C0F31A
:1022B00007407047002A426901D00A4300E08A4380
:1022C000426170470246002011F4700F03D09269FA
:1022D00004E001207047CB0104D552680A40110385
:1022E000F7D170470B0101D59268F7E78B0101D553
:1022F000D268F3E71269F1E7534A914202D1002113
:1023000081617047C1F313028B0101D5C260704730
:102310004B0101D502617047090101D58260704708
:10232000426070470246002053690B424AD0B1F523
:10233000807F3BD013DC08292ED007DC012926D072
:10234000022927D004293DD1D0682BE0102925D0BF
:10235000202926D0402935D11069102130E0B1F56F
:10236000004F2BD00BDCB1F5007F22D0B1F5806F90
:1023700022D0B1F5006F25D19069702120E0B1F530
:10238000803F11D0B1F5003F1CD15068E5E790685F
:102390002E4915E0D06802E0D068DEE7106903211D
:1023A0000EE0106908210BE05068FBE790690121FD
:1023B00006E09069022103E0906900E05068042182
:1023C00000F03BB8704730B5082310240422B1F563
:1023D000007F1DD010DC202929D007DC012921D065
:1023E000042922D0082900D1C46030BD402920D062
:1023F000B1F5807FF9D10BE00025B1F5004F06D093
:1024000008DCB1F5806F03D0B1F5006FEDD18561C7
:10241000426030BDB1F5803F0DD0B1F5003FF8D13D
:10242000446030BD0949816030BDC36030BD036187
:1024300030BD046130BD436030BD024600200A4219
:1024400000D00120704700007000F0300101010051
:10245000DF4908707047DE490028086802D040F460
:10246000807001E020F4807008607047D84900282F
:10247000086802D040F4007001E020F400700860A9
:102480007047D3490028086802D040F4806001E01A
:1024900020F4806008607047CD48016841F4006115
:1024A00001607047CA48016841F48051016070477B
:1024B000C74810300068002805DAC548C549001D26
:1024C0000160C54901607047C1481030016841F0A2
:1024D000004101607047BE4908200C310A68D203F0
:1024E00001D5012070470A68D20601D50520704742
:1024F0000A6812F0EF0F01D00620704709688907BB
:10250000FBD50720704708B508208DF8000000BFF4
:10251000FFF7E1FF8DF800009DF800000128F7D0DB
:102520009DF8000008BD70B50646002529B10129B7
:1025300028D0022929D04FF44075FFF7E4FF08287E
:102540001FD1A34C1034206820F440702060206814
:1025500028432060206820F0F8002060206846F0C2
:10256000020108432060206840F480302060FFF7BB
:10257000CAFF216821F002012160216821F0F801E1
:10258000216070BD4FF48075D7E74FF40075D4E734
:1025900030B504460025FFF7B6FF2CB1012C1DD045
:1025A000022C1ED04FF44075082816D1884C1034E8
:1025B000206820F440702060206828432060206854
:1025C00040F004002060206840F480302060FFF775
:1025D0009AFF216821F00401216030BD4FF480751D
:1025E000E2E74FF40075DFE7F0B515461E460746F3
:1025F000FFF789FF082815D1754C1034206820F4A6
:1026000040702060206840F440702060206840F0F6
:10261000010020603D607E60FFF775FF216821F0BA
:1026200001012160F0BD70B50D460646FFF76BFF56
:10263000082814D1664C1034206820F440702060C3
:10264000206840F400702060206840F001002060A5
:102650003560FFF758FF216821F00101216070BD4E
:1026600070B50D460646FFF74EFF082814D1584CAA
:102670001034206820F440702060206840F480709E
:102680002060206840F0010020603580FFF73BFFAC
:10269000216821F00101216070BD70B50D4606462C
:1026A000FFF731FF082812D1494C1034206820F47C
:1026B0004070206020682060206840F001002060A9
:1026C0003570FFF720FF216821F00101216070BD06
:1026D0003F4814300068C00705D03D483F490830E6
:1026E00001603F490160704739481430016841F08A
:1026F00001010160704730B50D460446FFF703FF46
:10270000082807D13248163001880DB1A14300E0F6
:102710002143018030BD10B50446FFF7F4FE0828C0
:1027200002D12B481530047010BD70B515460C460B
:102730000646FFF7E8FE082808D125491431087835
:1027400000F00F0004432C4334430C7070BD20494B
:1027500014310A7822F00C020A700A7802430A70D7
:1027600070471B481430017841F002010170CAE63D
:10277000174814300068C0F34710704714481630EB
:10278000008870471249002015310978AA2900D025
:10279000012070470E481430007800F00C0070479C
:1027A0000B4A10320029116801D0014300E0814337
:1027B000116070470146064A00200C3212680A4236
:1027C00000D00120704702490C31086070470000BA
:1027D000003C024023016745AB89EFCD3B2A190835
:1027E0007F6E5D4CFCB50027684801970097016833
:1027F00041F4803101604FF4A062016801F40031BE
:1028000000910199491C0191009911B901999142D6
:10281000F3D10168604E5FEA813C5D4A5D4B5F4DDC
:1028200040F2056406F104012BD5012700971768D3
:1028300047F0805717601A6842F480421A600A68AD
:102840000A600A6842F400420A600A6842F4805250
:102850000A60534A3260026842F080720260026885
:102860009201FCD52C60086820F00300086008681D
:1028700040F0020008600868C0F381000228FAD125
:10288000FCBD0097176847F0805717601A6842F43C
:1028900080421A600A680A600A6842F400420A60CC
:1028A0000A6842F4A0520A603E4A3260026842F06E
:1028B0008072026002689201FCD52C60086820F0EA
:1028C00003000860086840F0020008600868C0F370
:1028D00081000228FAD1FCBD334810B5016841F4EB
:1028E000700101602948016841F0010101602A4A34
:1028F0000021121D116002682C4B1A400260031D5A
:102900002B4A1A60026822F48022026022480830B2
:102910000160FFF767FF24494FF0006080390860CD
:1029200010BD70B51C4C241D2068224A10F00C010B
:10293000214804D05510042903D0082903D002608F
:102940001AE0056018E014490B68C3F380560B6861
:1029500003F03F0316B1B5FBF3F201E0B2FBF3F273
:102960000B680968C3F388135A43C1F30141491C3A
:102970004900B2FBF1F1016021680F4AC1F3031174
:10298000121D515C0268CA40026070BD00380240EE
:10299000403802400070004004380240003C0240D1
:1029A000085440071054000788ED00E0FFFFF6FED2
:1029B000103000240024F4008004002040EA0103C9
:1029C0009B0703D009E008C9121F08C0042AFAD2E5
:1029D00003E011F8013B00F8013B521EF9D27047A9
:1029E000D2B201E000F8012B491EFBD27047002251
:1029F000F6E710B513460A4604461946FFF7F0FFFE
:102A0000204610BD2DE9F05F0546002092469B460A
:102A100088460646814640241BE0284641464746F4
:102A2000224600F042F853465A46C01A914110D34C
:102A300011461846224600F029F82D1A67EB0108C6
:102A40004F4622460120002100F020F817EB000934
:102A50004E41201EA4F10104DFDC484631462A46DF
:102A60004346BDE8F09F0000064C074D06E0E068D5
:102A700040F0010394E8070098471034AC42F6D3C5
:102A8000FDF786FB2430000844300008202A04DBD0
:102A9000203A00FA02F1002070479140C2F1200371
:102AA00020FA03F3194390407047202A04DB203AB0
:102AB00021FA02F00021704721FA02F3D040C2F15E
:102AC0002002914008431946704770B58D1810F8E0
:102AD000014B14F0030201D110F8012B231106D190
:102AE00010F8013B03E010F8016B01F8016B521E76
:102AF000F9D1ABB110F8012B04F00C048A1A0C2C9C
:102B000003D0A2EB84129B1C08E010F8014BA2EB4F
:102B10000422F8E712F8014B01F8014B5B1EF9D5CE
:102B2000A942D4D3002070BD0FB4054B10B503A942
:102B3000044A029800F018F810BC5DF814FB00007D
:102B4000610300089404002002E008C8121F08C1B5
:102B5000002AFAD170477047002001E001C1121F1E
:102B6000002AFBD1704700002DE9FF4F8DB00F46C2
:102B70000546002606E025280BD0DDE90F12904718
:102B80006D1C761C28780028F5D111B03046BDE8C0
:102B9000F08F0024A246A1460122EC4900E0044344
:102BA00015F8013F203B02FA03F00842F7D12878DC
:102BB0002A2810D06FF02F022878A0F130010929BF
:102BC00014D80AEB8A0102EB410144F0020400EB45
:102BD000010A6D1CF0E701CF5FEA000A03D544F457
:102BE0000054CAF1000A44F002046D1C28782E2813
:102BF00017D115F8010F44F004042A280ED06FF005
:102C00002F022878A0F1300109290AD809EB89019F
:102C100002EB410100EB01096D1CF2E757F8049B40
:102C20006D1C28786C280FD006DC4C2817D068283B
:102C30000DD06A2814D104E0742810D07A280FD15E
:102C40000DE044F400140AE044F4801401E044F47C
:102C500040146978814202D104F580146D1C6D1C0A
:102C60002A786E2A1FD00CDC632A31D004DC002ABB
:102C70008BD0582A11D1A3E0642A68D0692A0CD1DC
:102C800065E0732A2ED004DC6F2A73D0702A04D139
:102C90009BE0752A6FD0782A6ED01046DDE90F12BE
:102CA0009047761C50E1C4F30250022806D0032856
:102CB00009D0042801CF09D0066045E101CFF11702
:102CC000C0E9006140E101CF06803DE106703BE1D3
:102CD00017F8040B8DF8000000208DF80100EB467A
:102CE000012003E057F804BB4FF0FF3061074FF0BD
:102CF000000102D40DE008F10101884649450FDAD0
:102D00008045F8DB1BF808100029F4D108E008F131
:102D1000010188468142FADB1BF808100029F6D130
:102D2000DDE90F23AAEB08008146214600F036F9C1
:102D3000304400EB080604E0DDE90F121BF8010B3C
:102D40009047B8F10108F7D221464846F7E00A213A
:102D5000C4F302534FF0000B0891022B04D001CFB3
:102D6000C117032B09D00AE0FF1D27F00707F7E87A
:102D7000020108E032E01FE020E000B2C117042B9E
:102D800001D140B2C117031E71F1000307DA4FF001
:102D9000000CD0EB0C006CEB01012D2302E02305AD
:102DA00004D52B238DF82430012303E0E30701D061
:102DB0002023F7E7984658E00A2110E010210EE0A2
:102DC00010204FF0000B08900CE010214FF0000B8A
:102DD00044F004044FF00809089103E008214FF083
:102DE000000B0891C4F30253022B04D001CF002141
:102DF000032B06D006E0FF1D27F00707F7E80201C6
:102E000003E080B2042B00D1C0B24FF000082307CA
:102E10002BD5702A07D0DDF820C08CF0100C5CEAAE
:102E20000B0C05D00EE040238DF82430012308E080
:102E300050EA010306D030238DF824308DF8252088
:102E400002239846DDF820C08CF0080C5CEA0B0CDD
:102E50000BD150EA010301D1630706D530238DF869
:102E600024304FF00108A9F10109582A04D038A2F2
:102E70000B9208AA0A920BE03AA2F9E75B46089A7D
:102E8000FFF7C0FD0B9B9B5C0A9A521E0A921370BF
:102E900050EA0102F2D10A98ADEB000000F1200BDC
:102EA000600702D524F4803401E04FF00109D945D0
:102EB00002DDA9EB0B0000E0002000EB0B01414418
:102EC0000890AAEB010AE00306D4DDE90F232146AE
:102ED000504600F063F806444FF0000908E009A9E5
:102EE00011F80900DDE90F12904709F10109761C7C
:102EF000C145F4DBE0030CD5DDE90F232146504644
:102F000000F04CF8064404E0DDE90F123020904751
:102F1000761C0899481E08900029F5DC08E00A98FC
:102F20000A990078491C0A91DDE90F129047761C36
:102F3000BBF10001ABF1010BF1DC21465046DDE9AC
:102F40000F2300F019F806446D1C1BE60928010048
:102F5000303132333435363738396162636465660F
:102F600000000000303132333435363738394142D1
:102F700043444546000000002DE9F0410446002589
:102F80001E461746880404D405E039462020B04781
:102F90006D1C641EF9D52846BDE8F0812DE9F0418D
:102FA000044600251E469046C80301D5302700E0A0
:102FB0002027880404D505E041463846B0476D1CFB
:102FC000641EF9D52846BDE8F08100000064004089
:102FD0000068004000640040006800402D2D2D2D49
:102FE0002D2D2D2D2D2D2D2D2D2D2D2D2D2D2D2D11
:102FF0002D2D2D2D2D2D2D2D2D2D2D2D2D2D2D2D01
:103000002D2D2D2D2D2D2D2D2D2D2D2D2D2D2D2DF0
:103010002D2D2D2D2D2D2D2D2D2D2D2D2D2D2D2DE0
:103020002D0D0A0044300008000000209804000024
:10303000CA2A0008B43400089804002030090000AF
:10304000582B0008120001100A40420F0000010036
:1030500000150C400720A1070000050C1006400DCC
:10306000030000031246243004A086011812690CE4
:10307000300450C3000C22D230424E0CB0040D027A
:10308000000170040101010C12FF01A11C00FF00EE
:10309000963007772C610EEEBA51099919C46D0765
:1030A0008FF46A7035A563E9A395649E3288DB0EC0
:1030B000A4B8DC791EE9D5E088D9D2972B4CB609A3
:1030C000BD7CB17E072DB8E7911DBF906410B71D80
:1030D000F220B06A4871B9F3DE41BE847DD4DA1AB9
:1030E000EBE4DD6D51B5D4F4C785D38356986C13EA
:1030F000C0A86B647AF962FDECC9658A4F5C011463
:10310000D96C0663633D0FFAF50D088DC8206E3B40
:103110005E10694CE44160D5727167A2D1E4033C52
:1031200047D4044BFD850DD26BB50AA5FAA8B53579
:103130006C98B242D6C9BBDB40F9BCACE36CD83268
:10314000755CDF45CF0DD6DC593DD1ABAC30D9260F
:103150003A00DE518051D7C81661D0BFB5F4B42112
:1031600023C4B3569995BACF0FA5BDB89EB802280F
:103170000888055FB2D90CC624E90BB1877C6F2F94
:10318000114C6858AB1D61C13D2D66B6904100FFE2
:1031900000DC760671DB01BC20D2982A10D5EF89BD
:1031A00085B1711FB5B606A5E4BF9F33D4B8E8A2B8
:1031B000C9077834F9000F8EA8099618980EE1BB5C
:1031C0000D6A7F2D3D6D08976C6491015C63E6F498
:1031D000516B6B62616C1CD83065854E0062F2EDFC
:1031E00095066C7BA5011BC1F4088257C40FF5C678
:1031F000D9B06550E9B712EAB8BE8B7C88B9FCDF5C
:103200001DDD62492DDA15F37CD38C654CD4FB5857
:1032100061B24DCE51B53A7400BCA3E230BBD4418B
:10322000A5DF4AD795D83D6DC4D1A4FBF4D6D36AA7
:10323000E96943FCD96E34468867ADD0B860DA736B
:103240002D0444E51D03335F4C0AAAC97C0DDD3C07
:10325000710550AA41022710100BBE86200CC9250B
:10326000B56857B3856F2009D466B99FE461CE0E67
:10327000F9DE5E98C9D9292298D0B0B4A8D7C7176B
:103280003DB359810DB42E3B5CBDB7AD6CBAC000E7
:10329000FF002083B8EDB6B3BF9A0CE2B6039AD212
:1032A000B1743947D5EAAF77D29D1526DB04831672
:1032B000DC73120B63E3843B64943E6A6D0DA85A81
:1032C0006A7A0BCF0EE49DFF099327AE000AB19EE8
:1032D000077D44930FF0D2A3088768F2011EFEC257
:1032E00006695D5762F7CB67658071366C19E70632
:1032F0006B6E761BD4FEE02BD3895A7ADA10CC4A57
:10330000DD676FDFB9F9F9EFBE8E43BEB717D58E13
:10331000B060E8A3D6D67E93D1A1C4C2D83852F209
:10332000DF4FF167BBD16757BCA6DD06B53F4B3613
:10333000B248DA2B0DD84C1B0AAFF64A0336607A36
:103340000441C3EF60DF55DF67A8EF8E6E3179BEB1
:1033500069468CB361CB1A8366BCA0D26F2536E276
:10336000685295770CCC03470BBBB91602222F2667
:103370000555BE3BBAC5280BBDB2925AB42B046AA0
:10338000B35CA7FFD7C231CFD0B58B9ED92C1DAE71
:1033900000FF00DE5BB0C2649B26F263EC9CA36A74
:1033A000750A936D02A906099C3F360EEB856707E7
:1033B0007213570005824ABF95147AB8E2AE2BB15A
:1033C0007B381BB60C9B8ED2920DBED5E5B7EFDCD9
:1033D0007C21DFDB0BD4D2D38642E2D4F1F8B3DD1B
:1033E000686E83DA1FCD16BE815B26B9F6E177B031
:1033F0006F7747B718E65A0888706A0FFFCA3B060E
:10340000665C0B0111FF9E658F69AE62F8D3FF6B9E
:103410006145CF6C1678E20AA0EED20DD754830432
:103420004EC2B30339612667A7F71660D04D4769CE
:1034300049DB776E3E4A6AD1AEDC5AD6D9660BDFDD
:1034400040F03BD83753AEBCA9C59EBBDE7FCFB2A0
:1034500047E9FFB5301CF2BDBD8AC2BACA3093B38A
:1034600053A6A3B4240536D0BA9306D7CD2957DE88
:1034700054BF67D9232E7A66B3B84A61C4021B6869
:103480005D942B6F2A37BE0BB4A18E0CC31BDF05D6
:103490005A3C058DEF022D1C042004020304047C19
:1034A0000906070809007A030A34046114000400BD
:0434B0000000000018
:040000050800018965
:00000001FF
